{
  "contractName": "GameItem",
  "abi": [
    {
      "inputs": [],
      "stateMutability": "nonpayable",
      "type": "constructor"
    },
    {
      "anonymous": false,
      "inputs": [
        {
          "indexed": true,
          "internalType": "address",
          "name": "owner",
          "type": "address"
        },
        {
          "indexed": true,
          "internalType": "address",
          "name": "approved",
          "type": "address"
        },
        {
          "indexed": true,
          "internalType": "uint256",
          "name": "tokenId",
          "type": "uint256"
        }
      ],
      "name": "Approval",
      "type": "event"
    },
    {
      "anonymous": false,
      "inputs": [
        {
          "indexed": true,
          "internalType": "address",
          "name": "owner",
          "type": "address"
        },
        {
          "indexed": true,
          "internalType": "address",
          "name": "operator",
          "type": "address"
        },
        {
          "indexed": false,
          "internalType": "bool",
          "name": "approved",
          "type": "bool"
        }
      ],
      "name": "ApprovalForAll",
      "type": "event"
    },
    {
      "anonymous": false,
      "inputs": [
        {
          "indexed": true,
          "internalType": "address",
          "name": "from",
          "type": "address"
        },
        {
          "indexed": true,
          "internalType": "address",
          "name": "to",
          "type": "address"
        },
        {
          "indexed": true,
          "internalType": "uint256",
          "name": "tokenId",
          "type": "uint256"
        }
      ],
      "name": "Transfer",
      "type": "event"
    },
    {
      "inputs": [
        {
          "internalType": "address",
          "name": "to",
          "type": "address"
        },
        {
          "internalType": "uint256",
          "name": "tokenId",
          "type": "uint256"
        }
      ],
      "name": "approve",
      "outputs": [],
      "stateMutability": "nonpayable",
      "type": "function"
    },
    {
      "inputs": [
        {
          "internalType": "address",
          "name": "owner",
          "type": "address"
        }
      ],
      "name": "balanceOf",
      "outputs": [
        {
          "internalType": "uint256",
          "name": "",
          "type": "uint256"
        }
      ],
      "stateMutability": "view",
      "type": "function"
    },
    {
      "inputs": [
        {
          "internalType": "uint256",
          "name": "tokenId",
          "type": "uint256"
        }
      ],
      "name": "getApproved",
      "outputs": [
        {
          "internalType": "address",
          "name": "",
          "type": "address"
        }
      ],
      "stateMutability": "view",
      "type": "function"
    },
    {
      "inputs": [
        {
          "internalType": "address",
          "name": "owner",
          "type": "address"
        },
        {
          "internalType": "address",
          "name": "operator",
          "type": "address"
        }
      ],
      "name": "isApprovedForAll",
      "outputs": [
        {
          "internalType": "bool",
          "name": "",
          "type": "bool"
        }
      ],
      "stateMutability": "view",
      "type": "function"
    },
    {
      "inputs": [],
      "name": "name",
      "outputs": [
        {
          "internalType": "string",
          "name": "",
          "type": "string"
        }
      ],
      "stateMutability": "view",
      "type": "function"
    },
    {
      "inputs": [
        {
          "internalType": "uint256",
          "name": "tokenId",
          "type": "uint256"
        }
      ],
      "name": "ownerOf",
      "outputs": [
        {
          "internalType": "address",
          "name": "",
          "type": "address"
        }
      ],
      "stateMutability": "view",
      "type": "function"
    },
    {
      "inputs": [
        {
          "internalType": "address",
          "name": "from",
          "type": "address"
        },
        {
          "internalType": "address",
          "name": "to",
          "type": "address"
        },
        {
          "internalType": "uint256",
          "name": "tokenId",
          "type": "uint256"
        }
      ],
      "name": "safeTransferFrom",
      "outputs": [],
      "stateMutability": "nonpayable",
      "type": "function"
    },
    {
      "inputs": [
        {
          "internalType": "address",
          "name": "from",
          "type": "address"
        },
        {
          "internalType": "address",
          "name": "to",
          "type": "address"
        },
        {
          "internalType": "uint256",
          "name": "tokenId",
          "type": "uint256"
        },
        {
          "internalType": "bytes",
          "name": "_data",
          "type": "bytes"
        }
      ],
      "name": "safeTransferFrom",
      "outputs": [],
      "stateMutability": "nonpayable",
      "type": "function"
    },
    {
      "inputs": [
        {
          "internalType": "address",
          "name": "operator",
          "type": "address"
        },
        {
          "internalType": "bool",
          "name": "approved",
          "type": "bool"
        }
      ],
      "name": "setApprovalForAll",
      "outputs": [],
      "stateMutability": "nonpayable",
      "type": "function"
    },
    {
      "inputs": [
        {
          "internalType": "bytes4",
          "name": "interfaceId",
          "type": "bytes4"
        }
      ],
      "name": "supportsInterface",
      "outputs": [
        {
          "internalType": "bool",
          "name": "",
          "type": "bool"
        }
      ],
      "stateMutability": "view",
      "type": "function"
    },
    {
      "inputs": [],
      "name": "symbol",
      "outputs": [
        {
          "internalType": "string",
          "name": "",
          "type": "string"
        }
      ],
      "stateMutability": "view",
      "type": "function"
    },
    {
      "inputs": [
        {
          "internalType": "uint256",
          "name": "tokenId",
          "type": "uint256"
        }
      ],
      "name": "tokenURI",
      "outputs": [
        {
          "internalType": "string",
          "name": "",
          "type": "string"
        }
      ],
      "stateMutability": "view",
      "type": "function"
    },
    {
      "inputs": [
        {
          "internalType": "address",
          "name": "from",
          "type": "address"
        },
        {
          "internalType": "address",
          "name": "to",
          "type": "address"
        },
        {
          "internalType": "uint256",
          "name": "tokenId",
          "type": "uint256"
        }
      ],
      "name": "transferFrom",
      "outputs": [],
      "stateMutability": "nonpayable",
      "type": "function"
    },
    {
      "inputs": [
        {
          "internalType": "address",
          "name": "player",
          "type": "address"
        },
        {
          "internalType": "string",
          "name": "hash",
          "type": "string"
        },
        {
          "internalType": "string",
          "name": "tokenURI",
          "type": "string"
        }
      ],
      "name": "awardItem",
      "outputs": [
        {
          "internalType": "uint256",
          "name": "",
          "type": "uint256"
        }
      ],
      "stateMutability": "nonpayable",
      "type": "function"
    }
  ],
  "bytecode": "0x60806040523480156200001157600080fd5b506040518060400160405280600881526020017f47616d654974656d0000000000000000000000000000000000000000000000008152506040518060400160405280600381526020017f49544d0000000000000000000000000000000000000000000000000000000000815250816000908051906020019062000096929190620000b8565b508060019080519060200190620000af929190620000b8565b505050620001cd565b828054620000c69062000168565b90600052602060002090601f016020900481019282620000ea576000855562000136565b82601f106200010557805160ff191683800117855562000136565b8280016001018555821562000136579182015b828111156200013557825182559160200191906001019062000118565b5b50905062000145919062000149565b5090565b5b80821115620001645760008160009055506001016200014a565b5090565b600060028204905060018216806200018157607f821691505b602082108114156200019857620001976200019e565b5b50919050565b7f4e487b7100000000000000000000000000000000000000000000000000000000600052602260045260246000fd5b612b3c80620001dd6000396000f3fe608060405234801561001057600080fd5b50600436106100ea5760003560e01c806370a082311161008c578063a22cb46511610066578063a22cb4651461026f578063b88d4fde1461028b578063c87b56dd146102a7578063e985e9c5146102d7576100ea565b806370a08231146101f15780638bfaf1011461022157806395d89b4114610251576100ea565b8063095ea7b3116100c8578063095ea7b31461016d57806323b872dd1461018957806342842e0e146101a55780636352211e146101c1576100ea565b806301ffc9a7146100ef57806306fdde031461011f578063081812fc1461013d575b600080fd5b61010960048036038101906101049190611cb9565b610307565b6040516101169190612494565b60405180910390f35b6101276103e9565b60405161013491906124af565b60405180910390f35b61015760048036038101906101529190611d0b565b61047b565b604051610164919061242d565b60405180910390f35b61018760048036038101906101829190611c7d565b610500565b005b6101a3600480360381019061019e9190611af8565b610618565b005b6101bf60048036038101906101ba9190611af8565b610678565b005b6101db60048036038101906101d69190611d0b565b610698565b6040516101e8919061242d565b60405180910390f35b61020b60048036038101906102069190611a93565b61074a565b60405161021891906126d1565b60405180910390f35b61023b60048036038101906102369190611bfe565b610802565b60405161024891906126d1565b60405180910390f35b6102596108af565b60405161026691906124af565b60405180910390f35b61028960048036038101906102849190611bc2565b610941565b005b6102a560048036038101906102a09190611b47565b610ac2565b005b6102c160048036038101906102bc9190611d0b565b610b24565b6040516102ce91906124af565b60405180910390f35b6102f160048036038101906102ec9190611abc565b610c76565b6040516102fe9190612494565b60405180910390f35b60007f80ac58cd000000000000000000000000000000000000000000000000000000007bffffffffffffffffffffffffffffffffffffffffffffffffffffffff1916827bffffffffffffffffffffffffffffffffffffffffffffffffffffffff191614806103d257507f5b5e139f000000000000000000000000000000000000000000000000000000007bffffffffffffffffffffffffffffffffffffffffffffffffffffffff1916827bffffffffffffffffffffffffffffffffffffffffffffffffffffffff1916145b806103e257506103e182610d0a565b5b9050919050565b6060600080546103f890612931565b80601f016020809104026020016040519081016040528092919081815260200182805461042490612931565b80156104715780601f1061044657610100808354040283529160200191610471565b820191906000526020600020905b81548152906001019060200180831161045457829003601f168201915b5050505050905090565b600061048682610d74565b6104c5576040517f08c379a00000000000000000000000000000000000000000000000000000000081526004016104bc90612631565b60405180910390fd5b6004600083815260200190815260200160002060009054906101000a900473ffffffffffffffffffffffffffffffffffffffff169050919050565b600061050b82610698565b90508073ffffffffffffffffffffffffffffffffffffffff168373ffffffffffffffffffffffffffffffffffffffff16141561057c576040517f08c379a000000000000000000000000000000000000000000000000000000000815260040161057390612691565b60405180910390fd5b8073ffffffffffffffffffffffffffffffffffffffff1661059b610de0565b73ffffffffffffffffffffffffffffffffffffffff1614806105ca57506105c9816105c4610de0565b610c76565b5b610609576040517f08c379a000000000000000000000000000000000000000000000000000000000815260040161060090612571565b60405180910390fd5b6106138383610de8565b505050565b610629610623610de0565b82610ea1565b610668576040517f08c379a000000000000000000000000000000000000000000000000000000000815260040161065f906126b1565b60405180910390fd5b610673838383610f7f565b505050565b61069383838360405180602001604052806000815250610ac2565b505050565b6000806002600084815260200190815260200160002060009054906101000a900473ffffffffffffffffffffffffffffffffffffffff169050600073ffffffffffffffffffffffffffffffffffffffff168173ffffffffffffffffffffffffffffffffffffffff161415610741576040517f08c379a0000000000000000000000000000000000000000000000000000000008152600401610738906125b1565b60405180910390fd5b80915050919050565b60008073ffffffffffffffffffffffffffffffffffffffff168273ffffffffffffffffffffffffffffffffffffffff1614156107bb576040517f08c379a00000000000000000000000000000000000000000000000000000000081526004016107b290612591565b60405180910390fd5b600360008373ffffffffffffffffffffffffffffffffffffffff1673ffffffffffffffffffffffffffffffffffffffff168152602001908152602001600020549050919050565b6000600160088460405161081691906123f2565b908152602001604051809103902060009054906101000a900460ff1660ff16141561084057600080fd5b600160088460405161085291906123f2565b908152602001604051809103902060006101000a81548160ff021916908360ff16021790555061088260076111db565b600061088e60076111f1565b905061089a85826111ff565b6108a481846113cd565b809150509392505050565b6060600180546108be90612931565b80601f01602080910402602001604051908101604052809291908181526020018280546108ea90612931565b80156109375780601f1061090c57610100808354040283529160200191610937565b820191906000526020600020905b81548152906001019060200180831161091a57829003601f168201915b5050505050905090565b610949610de0565b73ffffffffffffffffffffffffffffffffffffffff168273ffffffffffffffffffffffffffffffffffffffff1614156109b7576040517f08c379a00000000000000000000000000000000000000000000000000000000081526004016109ae90612531565b60405180910390fd5b80600560006109c4610de0565b73ffffffffffffffffffffffffffffffffffffffff1673ffffffffffffffffffffffffffffffffffffffff16815260200190815260200160002060008473ffffffffffffffffffffffffffffffffffffffff1673ffffffffffffffffffffffffffffffffffffffff16815260200190815260200160002060006101000a81548160ff0219169083151502179055508173ffffffffffffffffffffffffffffffffffffffff16610a71610de0565b73ffffffffffffffffffffffffffffffffffffffff167f17307eab39ab6107e8899845ad3d59bd9653f200f220920489ca2b5937696c3183604051610ab69190612494565b60405180910390a35050565b610ad3610acd610de0565b83610ea1565b610b12576040517f08c379a0000000000000000000000000000000000000000000000000000000008152600401610b09906126b1565b60405180910390fd5b610b1e84848484611441565b50505050565b6060610b2f82610d74565b610b6e576040517f08c379a0000000000000000000000000000000000000000000000000000000008152600401610b6590612611565b60405180910390fd5b6000600660008481526020019081526020016000208054610b8e90612931565b80601f0160208091040260200160405190810160405280929190818152602001828054610bba90612931565b8015610c075780601f10610bdc57610100808354040283529160200191610c07565b820191906000526020600020905b815481529060010190602001808311610bea57829003601f168201915b505050505090506000610c1861149d565b9050600081511415610c2e578192505050610c71565b600082511115610c63578082604051602001610c4b929190612409565b60405160208183030381529060405292505050610c71565b610c6c846114b4565b925050505b919050565b6000600560008473ffffffffffffffffffffffffffffffffffffffff1673ffffffffffffffffffffffffffffffffffffffff16815260200190815260200160002060008373ffffffffffffffffffffffffffffffffffffffff1673ffffffffffffffffffffffffffffffffffffffff16815260200190815260200160002060009054906101000a900460ff16905092915050565b60007f01ffc9a7000000000000000000000000000000000000000000000000000000007bffffffffffffffffffffffffffffffffffffffffffffffffffffffff1916827bffffffffffffffffffffffffffffffffffffffffffffffffffffffff1916149050919050565b60008073ffffffffffffffffffffffffffffffffffffffff166002600084815260200190815260200160002060009054906101000a900473ffffffffffffffffffffffffffffffffffffffff1673ffffffffffffffffffffffffffffffffffffffff1614159050919050565b600033905090565b816004600083815260200190815260200160002060006101000a81548173ffffffffffffffffffffffffffffffffffffffff021916908373ffffffffffffffffffffffffffffffffffffffff160217905550808273ffffffffffffffffffffffffffffffffffffffff16610e5b83610698565b73ffffffffffffffffffffffffffffffffffffffff167f8c5be1e5ebec7d5bd14f71427d1e84f3dd0314c0f7b2291e5b200ac8c7c3b92560405160405180910390a45050565b6000610eac82610d74565b610eeb576040517f08c379a0000000000000000000000000000000000000000000000000000000008152600401610ee290612551565b60405180910390fd5b6000610ef683610698565b90508073ffffffffffffffffffffffffffffffffffffffff168473ffffffffffffffffffffffffffffffffffffffff161480610f6557508373ffffffffffffffffffffffffffffffffffffffff16610f4d8461047b565b73ffffffffffffffffffffffffffffffffffffffff16145b80610f765750610f758185610c76565b5b91505092915050565b8273ffffffffffffffffffffffffffffffffffffffff16610f9f82610698565b73ffffffffffffffffffffffffffffffffffffffff1614610ff5576040517f08c379a0000000000000000000000000000000000000000000000000000000008152600401610fec90612651565b60405180910390fd5b600073ffffffffffffffffffffffffffffffffffffffff168273ffffffffffffffffffffffffffffffffffffffff161415611065576040517f08c379a000000000000000000000000000000000000000000000000000000000815260040161105c90612511565b60405180910390fd5b61107083838361155b565b61107b600082610de8565b6001600360008573ffffffffffffffffffffffffffffffffffffffff1673ffffffffffffffffffffffffffffffffffffffff16815260200190815260200160002060008282546110cb9190612847565b925050819055506001600360008473ffffffffffffffffffffffffffffffffffffffff1673ffffffffffffffffffffffffffffffffffffffff168152602001908152602001600020600082825461112291906127c0565b92505081905550816002600083815260200190815260200160002060006101000a81548173ffffffffffffffffffffffffffffffffffffffff021916908373ffffffffffffffffffffffffffffffffffffffff160217905550808273ffffffffffffffffffffffffffffffffffffffff168473ffffffffffffffffffffffffffffffffffffffff167fddf252ad1be2c89b69c2b068fc378daa952ba7f163c4a11628f55a4df523b3ef60405160405180910390a4505050565b6001816000016000828254019250508190555050565b600081600001549050919050565b600073ffffffffffffffffffffffffffffffffffffffff168273ffffffffffffffffffffffffffffffffffffffff16141561126f576040517f08c379a0000000000000000000000000000000000000000000000000000000008152600401611266906125f1565b60405180910390fd5b61127881610d74565b156112b8576040517f08c379a00000000000000000000000000000000000000000000000000000000081526004016112af906124f1565b60405180910390fd5b6112c46000838361155b565b6001600360008473ffffffffffffffffffffffffffffffffffffffff1673ffffffffffffffffffffffffffffffffffffffff168152602001908152602001600020600082825461131491906127c0565b92505081905550816002600083815260200190815260200160002060006101000a81548173ffffffffffffffffffffffffffffffffffffffff021916908373ffffffffffffffffffffffffffffffffffffffff160217905550808273ffffffffffffffffffffffffffffffffffffffff16600073ffffffffffffffffffffffffffffffffffffffff167fddf252ad1be2c89b69c2b068fc378daa952ba7f163c4a11628f55a4df523b3ef60405160405180910390a45050565b6113d682610d74565b611415576040517f08c379a000000000000000000000000000000000000000000000000000000000815260040161140c906125d1565b60405180910390fd5b8060066000848152602001908152602001600020908051906020019061143c9291906118b7565b505050565b61144c848484610f7f565b61145884848484611560565b611497576040517f08c379a000000000000000000000000000000000000000000000000000000000815260040161148e906124d1565b60405180910390fd5b50505050565b606060405180602001604052806000815250905090565b60606114bf82610d74565b6114fe576040517f08c379a00000000000000000000000000000000000000000000000000000000081526004016114f590612671565b60405180910390fd5b600061150861149d565b905060008151116115285760405180602001604052806000815250611553565b80611532846116f7565b604051602001611543929190612409565b6040516020818303038152906040525b915050919050565b505050565b60006115818473ffffffffffffffffffffffffffffffffffffffff166118a4565b156116ea578373ffffffffffffffffffffffffffffffffffffffff1663150b7a026115aa610de0565b8786866040518563ffffffff1660e01b81526004016115cc9493929190612448565b602060405180830381600087803b1580156115e657600080fd5b505af192505050801561161757506040513d601f19601f820116820180604052508101906116149190611ce2565b60015b61169a573d8060008114611647576040519150601f19603f3d011682016040523d82523d6000602084013e61164c565b606091505b50600081511415611692576040517f08c379a0000000000000000000000000000000000000000000000000000000008152600401611689906124d1565b60405180910390fd5b805181602001fd5b63150b7a0260e01b7bffffffffffffffffffffffffffffffffffffffffffffffffffffffff1916817bffffffffffffffffffffffffffffffffffffffffffffffffffffffff1916149150506116ef565b600190505b949350505050565b6060600082141561173f576040518060400160405280600181526020017f3000000000000000000000000000000000000000000000000000000000000000815250905061189f565b600082905060005b6000821461177157808061175a90612963565b915050600a8261176a9190612816565b9150611747565b60008167ffffffffffffffff8111156117b3577f4e487b7100000000000000000000000000000000000000000000000000000000600052604160045260246000fd5b6040519080825280601f01601f1916602001820160405280156117e55781602001600182028036833780820191505090505b5090505b60008514611898576001826117fe9190612847565b9150600a8561180d91906129ac565b603061181991906127c0565b60f81b818381518110611855577f4e487b7100000000000000000000000000000000000000000000000000000000600052603260045260246000fd5b60200101907effffffffffffffffffffffffffffffffffffffffffffffffffffffffffffff1916908160001a905350600a856118919190612816565b94506117e9565b8093505050505b919050565b600080823b905060008111915050919050565b8280546118c390612931565b90600052602060002090601f0160209004810192826118e5576000855561192c565b82601f106118fe57805160ff191683800117855561192c565b8280016001018555821561192c579182015b8281111561192b578251825591602001919060010190611910565b5b509050611939919061193d565b5090565b5b8082111561195657600081600090555060010161193e565b5090565b600061196d6119688461271d565b6126ec565b90508281526020810184848401111561198557600080fd5b6119908482856128ef565b509392505050565b60006119ab6119a68461274d565b6126ec565b9050828152602081018484840111156119c357600080fd5b6119ce8482856128ef565b509392505050565b6000813590506119e581612aaa565b92915050565b6000813590506119fa81612ac1565b92915050565b600081359050611a0f81612ad8565b92915050565b600081519050611a2481612ad8565b92915050565b600082601f830112611a3b57600080fd5b8135611a4b84826020860161195a565b91505092915050565b600082601f830112611a6557600080fd5b8135611a75848260208601611998565b91505092915050565b600081359050611a8d81612aef565b92915050565b600060208284031215611aa557600080fd5b6000611ab3848285016119d6565b91505092915050565b60008060408385031215611acf57600080fd5b6000611add858286016119d6565b9250506020611aee858286016119d6565b9150509250929050565b600080600060608486031215611b0d57600080fd5b6000611b1b868287016119d6565b9350506020611b2c868287016119d6565b9250506040611b3d86828701611a7e565b9150509250925092565b60008060008060808587031215611b5d57600080fd5b6000611b6b878288016119d6565b9450506020611b7c878288016119d6565b9350506040611b8d87828801611a7e565b925050606085013567ffffffffffffffff811115611baa57600080fd5b611bb687828801611a2a565b91505092959194509250565b60008060408385031215611bd557600080fd5b6000611be3858286016119d6565b9250506020611bf4858286016119eb565b9150509250929050565b600080600060608486031215611c1357600080fd5b6000611c21868287016119d6565b935050602084013567ffffffffffffffff811115611c3e57600080fd5b611c4a86828701611a54565b925050604084013567ffffffffffffffff811115611c6757600080fd5b611c7386828701611a54565b9150509250925092565b60008060408385031215611c9057600080fd5b6000611c9e858286016119d6565b9250506020611caf85828601611a7e565b9150509250929050565b600060208284031215611ccb57600080fd5b6000611cd984828501611a00565b91505092915050565b600060208284031215611cf457600080fd5b6000611d0284828501611a15565b91505092915050565b600060208284031215611d1d57600080fd5b6000611d2b84828501611a7e565b91505092915050565b611d3d8161287b565b82525050565b611d4c8161288d565b82525050565b6000611d5d8261277d565b611d678185612793565b9350611d778185602086016128fe565b611d8081612a99565b840191505092915050565b6000611d9682612788565b611da081856127a4565b9350611db08185602086016128fe565b611db981612a99565b840191505092915050565b6000611dcf82612788565b611dd981856127b5565b9350611de98185602086016128fe565b80840191505092915050565b6000611e026032836127a4565b91507f4552433732313a207472616e7366657220746f206e6f6e20455243373231526560008301527f63656976657220696d706c656d656e74657200000000000000000000000000006020830152604082019050919050565b6000611e68601c836127a4565b91507f4552433732313a20746f6b656e20616c7265616479206d696e746564000000006000830152602082019050919050565b6000611ea86024836127a4565b91507f4552433732313a207472616e7366657220746f20746865207a65726f2061646460008301527f72657373000000000000000000000000000000000000000000000000000000006020830152604082019050919050565b6000611f0e6019836127a4565b91507f4552433732313a20617070726f766520746f2063616c6c6572000000000000006000830152602082019050919050565b6000611f4e602c836127a4565b91507f4552433732313a206f70657261746f7220717565727920666f72206e6f6e657860008301527f697374656e7420746f6b656e00000000000000000000000000000000000000006020830152604082019050919050565b6000611fb46038836127a4565b91507f4552433732313a20617070726f76652063616c6c6572206973206e6f74206f7760008301527f6e6572206e6f7220617070726f76656420666f7220616c6c00000000000000006020830152604082019050919050565b600061201a602a836127a4565b91507f4552433732313a2062616c616e636520717565727920666f7220746865207a6560008301527f726f2061646472657373000000000000000000000000000000000000000000006020830152604082019050919050565b60006120806029836127a4565b91507f4552433732313a206f776e657220717565727920666f72206e6f6e657869737460008301527f656e7420746f6b656e00000000000000000000000000000000000000000000006020830152604082019050919050565b60006120e6602e836127a4565b91507f45524337323155524953746f726167653a2055524920736574206f66206e6f6e60008301527f6578697374656e7420746f6b656e0000000000000000000000000000000000006020830152604082019050919050565b600061214c6020836127a4565b91507f4552433732313a206d696e7420746f20746865207a65726f20616464726573736000830152602082019050919050565b600061218c6031836127a4565b91507f45524337323155524953746f726167653a2055524920717565727920666f722060008301527f6e6f6e6578697374656e7420746f6b656e0000000000000000000000000000006020830152604082019050919050565b60006121f2602c836127a4565b91507f4552433732313a20617070726f76656420717565727920666f72206e6f6e657860008301527f697374656e7420746f6b656e00000000000000000000000000000000000000006020830152604082019050919050565b60006122586029836127a4565b91507f4552433732313a207472616e73666572206f6620746f6b656e2074686174206960008301527f73206e6f74206f776e00000000000000000000000000000000000000000000006020830152604082019050919050565b60006122be602f836127a4565b91507f4552433732314d657461646174613a2055524920717565727920666f72206e6f60008301527f6e6578697374656e7420746f6b656e00000000000000000000000000000000006020830152604082019050919050565b60006123246021836127a4565b91507f4552433732313a20617070726f76616c20746f2063757272656e74206f776e6560008301527f72000000000000000000000000000000000000000000000000000000000000006020830152604082019050919050565b600061238a6031836127a4565b91507f4552433732313a207472616e736665722063616c6c6572206973206e6f74206f60008301527f776e6572206e6f7220617070726f7665640000000000000000000000000000006020830152604082019050919050565b6123ec816128e5565b82525050565b60006123fe8284611dc4565b915081905092915050565b60006124158285611dc4565b91506124218284611dc4565b91508190509392505050565b60006020820190506124426000830184611d34565b92915050565b600060808201905061245d6000830187611d34565b61246a6020830186611d34565b61247760408301856123e3565b81810360608301526124898184611d52565b905095945050505050565b60006020820190506124a96000830184611d43565b92915050565b600060208201905081810360008301526124c98184611d8b565b905092915050565b600060208201905081810360008301526124ea81611df5565b9050919050565b6000602082019050818103600083015261250a81611e5b565b9050919050565b6000602082019050818103600083015261252a81611e9b565b9050919050565b6000602082019050818103600083015261254a81611f01565b9050919050565b6000602082019050818103600083015261256a81611f41565b9050919050565b6000602082019050818103600083015261258a81611fa7565b9050919050565b600060208201905081810360008301526125aa8161200d565b9050919050565b600060208201905081810360008301526125ca81612073565b9050919050565b600060208201905081810360008301526125ea816120d9565b9050919050565b6000602082019050818103600083015261260a8161213f565b9050919050565b6000602082019050818103600083015261262a8161217f565b9050919050565b6000602082019050818103600083015261264a816121e5565b9050919050565b6000602082019050818103600083015261266a8161224b565b9050919050565b6000602082019050818103600083015261268a816122b1565b9050919050565b600060208201905081810360008301526126aa81612317565b9050919050565b600060208201905081810360008301526126ca8161237d565b9050919050565b60006020820190506126e660008301846123e3565b92915050565b6000604051905081810181811067ffffffffffffffff8211171561271357612712612a6a565b5b8060405250919050565b600067ffffffffffffffff82111561273857612737612a6a565b5b601f19601f8301169050602081019050919050565b600067ffffffffffffffff82111561276857612767612a6a565b5b601f19601f8301169050602081019050919050565b600081519050919050565b600081519050919050565b600082825260208201905092915050565b600082825260208201905092915050565b600081905092915050565b60006127cb826128e5565b91506127d6836128e5565b9250827fffffffffffffffffffffffffffffffffffffffffffffffffffffffffffffffff0382111561280b5761280a6129dd565b5b828201905092915050565b6000612821826128e5565b915061282c836128e5565b92508261283c5761283b612a0c565b5b828204905092915050565b6000612852826128e5565b915061285d836128e5565b9250828210156128705761286f6129dd565b5b828203905092915050565b6000612886826128c5565b9050919050565b60008115159050919050565b60007fffffffff0000000000000000000000000000000000000000000000000000000082169050919050565b600073ffffffffffffffffffffffffffffffffffffffff82169050919050565b6000819050919050565b82818337600083830152505050565b60005b8381101561291c578082015181840152602081019050612901565b8381111561292b576000848401525b50505050565b6000600282049050600182168061294957607f821691505b6020821081141561295d5761295c612a3b565b5b50919050565b600061296e826128e5565b91507fffffffffffffffffffffffffffffffffffffffffffffffffffffffffffffffff8214156129a1576129a06129dd565b5b600182019050919050565b60006129b7826128e5565b91506129c2836128e5565b9250826129d2576129d1612a0c565b5b828206905092915050565b7f4e487b7100000000000000000000000000000000000000000000000000000000600052601160045260246000fd5b7f4e487b7100000000000000000000000000000000000000000000000000000000600052601260045260246000fd5b7f4e487b7100000000000000000000000000000000000000000000000000000000600052602260045260246000fd5b7f4e487b7100000000000000000000000000000000000000000000000000000000600052604160045260246000fd5b6000601f19601f8301169050919050565b612ab38161287b565b8114612abe57600080fd5b50565b612aca8161288d565b8114612ad557600080fd5b50565b612ae181612899565b8114612aec57600080fd5b50565b612af8816128e5565b8114612b0357600080fd5b5056fea2646970667358221220a6e4a089fc2c4930dc97a9ff22aeda38b1c10397e2d549604deae84a974703da64736f6c63430008000033",
  "immutableReferences": {},
  "source": "pragma solidity ^0.8.0;\n\n// import \"@openzeppelin/contracts/token/ERC721/ERC721.sol\";\nimport \"@openzeppelin/contracts/token/ERC721/extensions/ERC721URIStorage.sol\";\nimport \"@openzeppelin/contracts/utils/Counters.sol\";\n\ncontract GameItem is ERC721URIStorage {\n    using Counters for Counters.Counter;\n    Counters.Counter private _tokenIds;\n    mapping(string => uint8) hashes;\n\n    constructor() ERC721(\"GameItem\", \"ITM\") {}\n\n    function awardItem(\n        address player,\n        string memory hash,\n        string memory tokenURI\n    ) public returns (uint256) {\n        require(hashes[hash] != 1);\n        hashes[hash] = 1;\n        _tokenIds.increment();\n\n        uint256 newItemId = _tokenIds.current();\n        _mint(player, newItemId);\n        _setTokenURI(newItemId, tokenURI);\n\n        return newItemId;\n    }\n}\n",
  "sourcePath": "/Users/tterado/Desktop/Code/2021/eth_tsuru/mySpecialAsset/contracts/UniqueAsset.sol",
  "compiler": {
    "name": "solc",
    "version": "0.8.0+commit.c7dfd78e.Emscripten.clang"
  },
  "schemaVersion": "3.3.4",
  "updatedAt": "2021-04-07T16:42:39.889Z",
  "devdoc": {
    "kind": "dev",
    "methods": {
      "approve(address,uint256)": {
        "details": "See {IERC721-approve}."
      },
      "balanceOf(address)": {
        "details": "See {IERC721-balanceOf}."
      },
      "getApproved(uint256)": {
        "details": "See {IERC721-getApproved}."
      },
      "isApprovedForAll(address,address)": {
        "details": "See {IERC721-isApprovedForAll}."
      },
      "name()": {
        "details": "See {IERC721Metadata-name}."
      },
      "ownerOf(uint256)": {
        "details": "See {IERC721-ownerOf}."
      },
      "safeTransferFrom(address,address,uint256)": {
        "details": "See {IERC721-safeTransferFrom}."
      },
      "safeTransferFrom(address,address,uint256,bytes)": {
        "details": "See {IERC721-safeTransferFrom}."
      },
      "setApprovalForAll(address,bool)": {
        "details": "See {IERC721-setApprovalForAll}."
      },
      "supportsInterface(bytes4)": {
        "details": "See {IERC165-supportsInterface}."
      },
      "symbol()": {
        "details": "See {IERC721Metadata-symbol}."
      },
      "tokenURI(uint256)": {
        "details": "See {IERC721Metadata-tokenURI}."
      },
      "transferFrom(address,address,uint256)": {
        "details": "See {IERC721-transferFrom}."
      }
    },
    "version": 1
  },
  "userdoc": {
    "kind": "user",
    "methods": {},
    "version": 1
  }
}