{
  "contractName": "UniqueAsset",
  "abi": [
    {
      "inputs": [],
      "stateMutability": "nonpayable",
      "type": "constructor"
    },
    {
      "anonymous": false,
      "inputs": [
        {
          "indexed": true,
          "internalType": "address",
          "name": "owner",
          "type": "address"
        },
        {
          "indexed": true,
          "internalType": "address",
          "name": "approved",
          "type": "address"
        },
        {
          "indexed": true,
          "internalType": "uint256",
          "name": "tokenId",
          "type": "uint256"
        }
      ],
      "name": "Approval",
      "type": "event"
    },
    {
      "anonymous": false,
      "inputs": [
        {
          "indexed": true,
          "internalType": "address",
          "name": "owner",
          "type": "address"
        },
        {
          "indexed": true,
          "internalType": "address",
          "name": "operator",
          "type": "address"
        },
        {
          "indexed": false,
          "internalType": "bool",
          "name": "approved",
          "type": "bool"
        }
      ],
      "name": "ApprovalForAll",
      "type": "event"
    },
    {
      "anonymous": false,
      "inputs": [
        {
          "indexed": true,
          "internalType": "address",
          "name": "from",
          "type": "address"
        },
        {
          "indexed": true,
          "internalType": "address",
          "name": "to",
          "type": "address"
        },
        {
          "indexed": true,
          "internalType": "uint256",
          "name": "tokenId",
          "type": "uint256"
        }
      ],
      "name": "Transfer",
      "type": "event"
    },
    {
      "inputs": [
        {
          "internalType": "address",
          "name": "to",
          "type": "address"
        },
        {
          "internalType": "uint256",
          "name": "tokenId",
          "type": "uint256"
        }
      ],
      "name": "approve",
      "outputs": [],
      "stateMutability": "nonpayable",
      "type": "function"
    },
    {
      "inputs": [
        {
          "internalType": "address",
          "name": "owner",
          "type": "address"
        }
      ],
      "name": "balanceOf",
      "outputs": [
        {
          "internalType": "uint256",
          "name": "",
          "type": "uint256"
        }
      ],
      "stateMutability": "view",
      "type": "function"
    },
    {
      "inputs": [
        {
          "internalType": "uint256",
          "name": "tokenId",
          "type": "uint256"
        }
      ],
      "name": "getApproved",
      "outputs": [
        {
          "internalType": "address",
          "name": "",
          "type": "address"
        }
      ],
      "stateMutability": "view",
      "type": "function"
    },
    {
      "inputs": [
        {
          "internalType": "address",
          "name": "owner",
          "type": "address"
        },
        {
          "internalType": "address",
          "name": "operator",
          "type": "address"
        }
      ],
      "name": "isApprovedForAll",
      "outputs": [
        {
          "internalType": "bool",
          "name": "",
          "type": "bool"
        }
      ],
      "stateMutability": "view",
      "type": "function"
    },
    {
      "inputs": [],
      "name": "name",
      "outputs": [
        {
          "internalType": "string",
          "name": "",
          "type": "string"
        }
      ],
      "stateMutability": "view",
      "type": "function"
    },
    {
      "inputs": [
        {
          "internalType": "uint256",
          "name": "tokenId",
          "type": "uint256"
        }
      ],
      "name": "ownerOf",
      "outputs": [
        {
          "internalType": "address",
          "name": "",
          "type": "address"
        }
      ],
      "stateMutability": "view",
      "type": "function"
    },
    {
      "inputs": [
        {
          "internalType": "address",
          "name": "from",
          "type": "address"
        },
        {
          "internalType": "address",
          "name": "to",
          "type": "address"
        },
        {
          "internalType": "uint256",
          "name": "tokenId",
          "type": "uint256"
        }
      ],
      "name": "safeTransferFrom",
      "outputs": [],
      "stateMutability": "nonpayable",
      "type": "function"
    },
    {
      "inputs": [
        {
          "internalType": "address",
          "name": "from",
          "type": "address"
        },
        {
          "internalType": "address",
          "name": "to",
          "type": "address"
        },
        {
          "internalType": "uint256",
          "name": "tokenId",
          "type": "uint256"
        },
        {
          "internalType": "bytes",
          "name": "_data",
          "type": "bytes"
        }
      ],
      "name": "safeTransferFrom",
      "outputs": [],
      "stateMutability": "nonpayable",
      "type": "function"
    },
    {
      "inputs": [
        {
          "internalType": "address",
          "name": "operator",
          "type": "address"
        },
        {
          "internalType": "bool",
          "name": "approved",
          "type": "bool"
        }
      ],
      "name": "setApprovalForAll",
      "outputs": [],
      "stateMutability": "nonpayable",
      "type": "function"
    },
    {
      "inputs": [
        {
          "internalType": "bytes4",
          "name": "interfaceId",
          "type": "bytes4"
        }
      ],
      "name": "supportsInterface",
      "outputs": [
        {
          "internalType": "bool",
          "name": "",
          "type": "bool"
        }
      ],
      "stateMutability": "view",
      "type": "function"
    },
    {
      "inputs": [],
      "name": "symbol",
      "outputs": [
        {
          "internalType": "string",
          "name": "",
          "type": "string"
        }
      ],
      "stateMutability": "view",
      "type": "function"
    },
    {
      "inputs": [
        {
          "internalType": "uint256",
          "name": "tokenId",
          "type": "uint256"
        }
      ],
      "name": "tokenURI",
      "outputs": [
        {
          "internalType": "string",
          "name": "",
          "type": "string"
        }
      ],
      "stateMutability": "view",
      "type": "function"
    },
    {
      "inputs": [
        {
          "internalType": "address",
          "name": "from",
          "type": "address"
        },
        {
          "internalType": "address",
          "name": "to",
          "type": "address"
        },
        {
          "internalType": "uint256",
          "name": "tokenId",
          "type": "uint256"
        }
      ],
      "name": "transferFrom",
      "outputs": [],
      "stateMutability": "nonpayable",
      "type": "function"
    },
    {
      "inputs": [
        {
          "internalType": "address",
          "name": "recipient",
          "type": "address"
        },
        {
          "internalType": "string",
          "name": "hash",
          "type": "string"
        },
        {
          "internalType": "string",
          "name": "metadata",
          "type": "string"
        }
      ],
      "name": "awardItem",
      "outputs": [
        {
          "internalType": "uint256",
          "name": "",
          "type": "uint256"
        }
      ],
      "stateMutability": "nonpayable",
      "type": "function"
    }
  ],
  "bytecode": "0x60806040523480156200001157600080fd5b506040518060400160405280600b81526020017f556e6971756541737365740000000000000000000000000000000000000000008152506040518060400160405280600381526020017f554e410000000000000000000000000000000000000000000000000000000000815250816000908051906020019062000096929190620000b8565b508060019080519060200190620000af929190620000b8565b505050620001cd565b828054620000c69062000168565b90600052602060002090601f016020900481019282620000ea576000855562000136565b82601f106200010557805160ff191683800117855562000136565b8280016001018555821562000136579182015b828111156200013557825182559160200191906001019062000118565b5b50905062000145919062000149565b5090565b5b80821115620001645760008160009055506001016200014a565b5090565b600060028204905060018216806200018157607f821691505b602082108114156200019857620001976200019e565b5b50919050565b7f4e487b7100000000000000000000000000000000000000000000000000000000600052602260045260246000fd5b61273280620001dd6000396000f3fe608060405234801561001057600080fd5b50600436106100ea5760003560e01c806370a082311161008c578063a22cb46511610066578063a22cb4651461026f578063b88d4fde1461028b578063c87b56dd146102a7578063e985e9c5146102d7576100ea565b806370a08231146101f15780638bfaf1011461022157806395d89b4114610251576100ea565b8063095ea7b3116100c8578063095ea7b31461016d57806323b872dd1461018957806342842e0e146101a55780636352211e146101c1576100ea565b806301ffc9a7146100ef57806306fdde031461011f578063081812fc1461013d575b600080fd5b610109600480360381019061010491906119d2565b610307565b60405161011691906120ca565b60405180910390f35b6101276103e9565b60405161013491906120e5565b60405180910390f35b61015760048036038101906101529190611a24565b61047b565b6040516101649190612063565b60405180910390f35b61018760048036038101906101829190611996565b610500565b005b6101a3600480360381019061019e9190611811565b610618565b005b6101bf60048036038101906101ba9190611811565b610678565b005b6101db60048036038101906101d69190611a24565b610698565b6040516101e89190612063565b60405180910390f35b61020b600480360381019061020691906117ac565b61074a565b60405161021891906122c7565b60405180910390f35b61023b60048036038101906102369190611917565b610802565b60405161024891906122c7565b60405180910390f35b610259610831565b60405161026691906120e5565b60405180910390f35b610289600480360381019061028491906118db565b6108c3565b005b6102a560048036038101906102a09190611860565b610a44565b005b6102c160048036038101906102bc9190611a24565b610aa6565b6040516102ce91906120e5565b60405180910390f35b6102f160048036038101906102ec91906117d5565b610b4d565b6040516102fe91906120ca565b60405180910390f35b60007f80ac58cd000000000000000000000000000000000000000000000000000000007bffffffffffffffffffffffffffffffffffffffffffffffffffffffff1916827bffffffffffffffffffffffffffffffffffffffffffffffffffffffff191614806103d257507f5b5e139f000000000000000000000000000000000000000000000000000000007bffffffffffffffffffffffffffffffffffffffffffffffffffffffff1916827bffffffffffffffffffffffffffffffffffffffffffffffffffffffff1916145b806103e257506103e182610be1565b5b9050919050565b6060600080546103f890612527565b80601f016020809104026020016040519081016040528092919081815260200182805461042490612527565b80156104715780601f1061044657610100808354040283529160200191610471565b820191906000526020600020905b81548152906001019060200180831161045457829003601f168201915b5050505050905090565b600061048682610c4b565b6104c5576040517f08c379a00000000000000000000000000000000000000000000000000000000081526004016104bc90612227565b60405180910390fd5b6004600083815260200190815260200160002060009054906101000a900473ffffffffffffffffffffffffffffffffffffffff169050919050565b600061050b82610698565b90508073ffffffffffffffffffffffffffffffffffffffff168373ffffffffffffffffffffffffffffffffffffffff16141561057c576040517f08c379a000000000000000000000000000000000000000000000000000000000815260040161057390612287565b60405180910390fd5b8073ffffffffffffffffffffffffffffffffffffffff1661059b610cb7565b73ffffffffffffffffffffffffffffffffffffffff1614806105ca57506105c9816105c4610cb7565b610b4d565b5b610609576040517f08c379a0000000000000000000000000000000000000000000000000000000008152600401610600906121a7565b60405180910390fd5b6106138383610cbf565b505050565b610629610623610cb7565b82610d78565b610668576040517f08c379a000000000000000000000000000000000000000000000000000000000815260040161065f906122a7565b60405180910390fd5b610673838383610e56565b505050565b61069383838360405180602001604052806000815250610a44565b505050565b6000806002600084815260200190815260200160002060009054906101000a900473ffffffffffffffffffffffffffffffffffffffff169050600073ffffffffffffffffffffffffffffffffffffffff168173ffffffffffffffffffffffffffffffffffffffff161415610741576040517f08c379a0000000000000000000000000000000000000000000000000000000008152600401610738906121e7565b60405180910390fd5b80915050919050565b60008073ffffffffffffffffffffffffffffffffffffffff168273ffffffffffffffffffffffffffffffffffffffff1614156107bb576040517f08c379a00000000000000000000000000000000000000000000000000000000081526004016107b2906121c7565b60405180910390fd5b600360008373ffffffffffffffffffffffffffffffffffffffff1673ffffffffffffffffffffffffffffffffffffffff168152602001908152602001600020549050919050565b600061080e60066110b2565b600061081a60066110c8565b905061082685826110d6565b809150509392505050565b60606001805461084090612527565b80601f016020809104026020016040519081016040528092919081815260200182805461086c90612527565b80156108b95780601f1061088e576101008083540402835291602001916108b9565b820191906000526020600020905b81548152906001019060200180831161089c57829003601f168201915b5050505050905090565b6108cb610cb7565b73ffffffffffffffffffffffffffffffffffffffff168273ffffffffffffffffffffffffffffffffffffffff161415610939576040517f08c379a000000000000000000000000000000000000000000000000000000000815260040161093090612167565b60405180910390fd5b8060056000610946610cb7565b73ffffffffffffffffffffffffffffffffffffffff1673ffffffffffffffffffffffffffffffffffffffff16815260200190815260200160002060008473ffffffffffffffffffffffffffffffffffffffff1673ffffffffffffffffffffffffffffffffffffffff16815260200190815260200160002060006101000a81548160ff0219169083151502179055508173ffffffffffffffffffffffffffffffffffffffff166109f3610cb7565b73ffffffffffffffffffffffffffffffffffffffff167f17307eab39ab6107e8899845ad3d59bd9653f200f220920489ca2b5937696c3183604051610a3891906120ca565b60405180910390a35050565b610a55610a4f610cb7565b83610d78565b610a94576040517f08c379a0000000000000000000000000000000000000000000000000000000008152600401610a8b906122a7565b60405180910390fd5b610aa0848484846112a4565b50505050565b6060610ab182610c4b565b610af0576040517f08c379a0000000000000000000000000000000000000000000000000000000008152600401610ae790612267565b60405180910390fd5b6000610afa611300565b90506000815111610b1a5760405180602001604052806000815250610b45565b80610b2484611317565b604051602001610b3592919061203f565b6040516020818303038152906040525b915050919050565b6000600560008473ffffffffffffffffffffffffffffffffffffffff1673ffffffffffffffffffffffffffffffffffffffff16815260200190815260200160002060008373ffffffffffffffffffffffffffffffffffffffff1673ffffffffffffffffffffffffffffffffffffffff16815260200190815260200160002060009054906101000a900460ff16905092915050565b60007f01ffc9a7000000000000000000000000000000000000000000000000000000007bffffffffffffffffffffffffffffffffffffffffffffffffffffffff1916827bffffffffffffffffffffffffffffffffffffffffffffffffffffffff1916149050919050565b60008073ffffffffffffffffffffffffffffffffffffffff166002600084815260200190815260200160002060009054906101000a900473ffffffffffffffffffffffffffffffffffffffff1673ffffffffffffffffffffffffffffffffffffffff1614159050919050565b600033905090565b816004600083815260200190815260200160002060006101000a81548173ffffffffffffffffffffffffffffffffffffffff021916908373ffffffffffffffffffffffffffffffffffffffff160217905550808273ffffffffffffffffffffffffffffffffffffffff16610d3283610698565b73ffffffffffffffffffffffffffffffffffffffff167f8c5be1e5ebec7d5bd14f71427d1e84f3dd0314c0f7b2291e5b200ac8c7c3b92560405160405180910390a45050565b6000610d8382610c4b565b610dc2576040517f08c379a0000000000000000000000000000000000000000000000000000000008152600401610db990612187565b60405180910390fd5b6000610dcd83610698565b90508073ffffffffffffffffffffffffffffffffffffffff168473ffffffffffffffffffffffffffffffffffffffff161480610e3c57508373ffffffffffffffffffffffffffffffffffffffff16610e248461047b565b73ffffffffffffffffffffffffffffffffffffffff16145b80610e4d5750610e4c8185610b4d565b5b91505092915050565b8273ffffffffffffffffffffffffffffffffffffffff16610e7682610698565b73ffffffffffffffffffffffffffffffffffffffff1614610ecc576040517f08c379a0000000000000000000000000000000000000000000000000000000008152600401610ec390612247565b60405180910390fd5b600073ffffffffffffffffffffffffffffffffffffffff168273ffffffffffffffffffffffffffffffffffffffff161415610f3c576040517f08c379a0000000000000000000000000000000000000000000000000000000008152600401610f3390612147565b60405180910390fd5b610f478383836114c4565b610f52600082610cbf565b6001600360008573ffffffffffffffffffffffffffffffffffffffff1673ffffffffffffffffffffffffffffffffffffffff1681526020019081526020016000206000828254610fa2919061243d565b925050819055506001600360008473ffffffffffffffffffffffffffffffffffffffff1673ffffffffffffffffffffffffffffffffffffffff1681526020019081526020016000206000828254610ff991906123b6565b92505081905550816002600083815260200190815260200160002060006101000a81548173ffffffffffffffffffffffffffffffffffffffff021916908373ffffffffffffffffffffffffffffffffffffffff160217905550808273ffffffffffffffffffffffffffffffffffffffff168473ffffffffffffffffffffffffffffffffffffffff167fddf252ad1be2c89b69c2b068fc378daa952ba7f163c4a11628f55a4df523b3ef60405160405180910390a4505050565b6001816000016000828254019250508190555050565b600081600001549050919050565b600073ffffffffffffffffffffffffffffffffffffffff168273ffffffffffffffffffffffffffffffffffffffff161415611146576040517f08c379a000000000000000000000000000000000000000000000000000000000815260040161113d90612207565b60405180910390fd5b61114f81610c4b565b1561118f576040517f08c379a000000000000000000000000000000000000000000000000000000000815260040161118690612127565b60405180910390fd5b61119b600083836114c4565b6001600360008473ffffffffffffffffffffffffffffffffffffffff1673ffffffffffffffffffffffffffffffffffffffff16815260200190815260200160002060008282546111eb91906123b6565b92505081905550816002600083815260200190815260200160002060006101000a81548173ffffffffffffffffffffffffffffffffffffffff021916908373ffffffffffffffffffffffffffffffffffffffff160217905550808273ffffffffffffffffffffffffffffffffffffffff16600073ffffffffffffffffffffffffffffffffffffffff167fddf252ad1be2c89b69c2b068fc378daa952ba7f163c4a11628f55a4df523b3ef60405160405180910390a45050565b6112af848484610e56565b6112bb848484846114c9565b6112fa576040517f08c379a00000000000000000000000000000000000000000000000000000000081526004016112f190612107565b60405180910390fd5b50505050565b606060405180602001604052806000815250905090565b6060600082141561135f576040518060400160405280600181526020017f300000000000000000000000000000000000000000000000000000000000000081525090506114bf565b600082905060005b6000821461139157808061137a90612559565b915050600a8261138a919061240c565b9150611367565b60008167ffffffffffffffff8111156113d3577f4e487b7100000000000000000000000000000000000000000000000000000000600052604160045260246000fd5b6040519080825280601f01601f1916602001820160405280156114055781602001600182028036833780820191505090505b5090505b600085146114b85760018261141e919061243d565b9150600a8561142d91906125a2565b603061143991906123b6565b60f81b818381518110611475577f4e487b7100000000000000000000000000000000000000000000000000000000600052603260045260246000fd5b60200101907effffffffffffffffffffffffffffffffffffffffffffffffffffffffffffff1916908160001a905350600a856114b1919061240c565b9450611409565b8093505050505b919050565b505050565b60006114ea8473ffffffffffffffffffffffffffffffffffffffff16611660565b15611653578373ffffffffffffffffffffffffffffffffffffffff1663150b7a02611513610cb7565b8786866040518563ffffffff1660e01b8152600401611535949392919061207e565b602060405180830381600087803b15801561154f57600080fd5b505af192505050801561158057506040513d601f19601f8201168201806040525081019061157d91906119fb565b60015b611603573d80600081146115b0576040519150601f19603f3d011682016040523d82523d6000602084013e6115b5565b606091505b506000815114156115fb576040517f08c379a00000000000000000000000000000000000000000000000000000000081526004016115f290612107565b60405180910390fd5b805181602001fd5b63150b7a0260e01b7bffffffffffffffffffffffffffffffffffffffffffffffffffffffff1916817bffffffffffffffffffffffffffffffffffffffffffffffffffffffff191614915050611658565b600190505b949350505050565b600080823b905060008111915050919050565b600061168661168184612313565b6122e2565b90508281526020810184848401111561169e57600080fd5b6116a98482856124e5565b509392505050565b60006116c46116bf84612343565b6122e2565b9050828152602081018484840111156116dc57600080fd5b6116e78482856124e5565b509392505050565b6000813590506116fe816126a0565b92915050565b600081359050611713816126b7565b92915050565b600081359050611728816126ce565b92915050565b60008151905061173d816126ce565b92915050565b600082601f83011261175457600080fd5b8135611764848260208601611673565b91505092915050565b600082601f83011261177e57600080fd5b813561178e8482602086016116b1565b91505092915050565b6000813590506117a6816126e5565b92915050565b6000602082840312156117be57600080fd5b60006117cc848285016116ef565b91505092915050565b600080604083850312156117e857600080fd5b60006117f6858286016116ef565b9250506020611807858286016116ef565b9150509250929050565b60008060006060848603121561182657600080fd5b6000611834868287016116ef565b9350506020611845868287016116ef565b925050604061185686828701611797565b9150509250925092565b6000806000806080858703121561187657600080fd5b6000611884878288016116ef565b9450506020611895878288016116ef565b93505060406118a687828801611797565b925050606085013567ffffffffffffffff8111156118c357600080fd5b6118cf87828801611743565b91505092959194509250565b600080604083850312156118ee57600080fd5b60006118fc858286016116ef565b925050602061190d85828601611704565b9150509250929050565b60008060006060848603121561192c57600080fd5b600061193a868287016116ef565b935050602084013567ffffffffffffffff81111561195757600080fd5b6119638682870161176d565b925050604084013567ffffffffffffffff81111561198057600080fd5b61198c8682870161176d565b9150509250925092565b600080604083850312156119a957600080fd5b60006119b7858286016116ef565b92505060206119c885828601611797565b9150509250929050565b6000602082840312156119e457600080fd5b60006119f284828501611719565b91505092915050565b600060208284031215611a0d57600080fd5b6000611a1b8482850161172e565b91505092915050565b600060208284031215611a3657600080fd5b6000611a4484828501611797565b91505092915050565b611a5681612471565b82525050565b611a6581612483565b82525050565b6000611a7682612373565b611a808185612389565b9350611a908185602086016124f4565b611a998161268f565b840191505092915050565b6000611aaf8261237e565b611ab9818561239a565b9350611ac98185602086016124f4565b611ad28161268f565b840191505092915050565b6000611ae88261237e565b611af281856123ab565b9350611b028185602086016124f4565b80840191505092915050565b6000611b1b60328361239a565b91507f4552433732313a207472616e7366657220746f206e6f6e20455243373231526560008301527f63656976657220696d706c656d656e74657200000000000000000000000000006020830152604082019050919050565b6000611b81601c8361239a565b91507f4552433732313a20746f6b656e20616c7265616479206d696e746564000000006000830152602082019050919050565b6000611bc160248361239a565b91507f4552433732313a207472616e7366657220746f20746865207a65726f2061646460008301527f72657373000000000000000000000000000000000000000000000000000000006020830152604082019050919050565b6000611c2760198361239a565b91507f4552433732313a20617070726f766520746f2063616c6c6572000000000000006000830152602082019050919050565b6000611c67602c8361239a565b91507f4552433732313a206f70657261746f7220717565727920666f72206e6f6e657860008301527f697374656e7420746f6b656e00000000000000000000000000000000000000006020830152604082019050919050565b6000611ccd60388361239a565b91507f4552433732313a20617070726f76652063616c6c6572206973206e6f74206f7760008301527f6e6572206e6f7220617070726f76656420666f7220616c6c00000000000000006020830152604082019050919050565b6000611d33602a8361239a565b91507f4552433732313a2062616c616e636520717565727920666f7220746865207a6560008301527f726f2061646472657373000000000000000000000000000000000000000000006020830152604082019050919050565b6000611d9960298361239a565b91507f4552433732313a206f776e657220717565727920666f72206e6f6e657869737460008301527f656e7420746f6b656e00000000000000000000000000000000000000000000006020830152604082019050919050565b6000611dff60208361239a565b91507f4552433732313a206d696e7420746f20746865207a65726f20616464726573736000830152602082019050919050565b6000611e3f602c8361239a565b91507f4552433732313a20617070726f76656420717565727920666f72206e6f6e657860008301527f697374656e7420746f6b656e00000000000000000000000000000000000000006020830152604082019050919050565b6000611ea560298361239a565b91507f4552433732313a207472616e73666572206f6620746f6b656e2074686174206960008301527f73206e6f74206f776e00000000000000000000000000000000000000000000006020830152604082019050919050565b6000611f0b602f8361239a565b91507f4552433732314d657461646174613a2055524920717565727920666f72206e6f60008301527f6e6578697374656e7420746f6b656e00000000000000000000000000000000006020830152604082019050919050565b6000611f7160218361239a565b91507f4552433732313a20617070726f76616c20746f2063757272656e74206f776e6560008301527f72000000000000000000000000000000000000000000000000000000000000006020830152604082019050919050565b6000611fd760318361239a565b91507f4552433732313a207472616e736665722063616c6c6572206973206e6f74206f60008301527f776e6572206e6f7220617070726f7665640000000000000000000000000000006020830152604082019050919050565b612039816124db565b82525050565b600061204b8285611add565b91506120578284611add565b91508190509392505050565b60006020820190506120786000830184611a4d565b92915050565b60006080820190506120936000830187611a4d565b6120a06020830186611a4d565b6120ad6040830185612030565b81810360608301526120bf8184611a6b565b905095945050505050565b60006020820190506120df6000830184611a5c565b92915050565b600060208201905081810360008301526120ff8184611aa4565b905092915050565b6000602082019050818103600083015261212081611b0e565b9050919050565b6000602082019050818103600083015261214081611b74565b9050919050565b6000602082019050818103600083015261216081611bb4565b9050919050565b6000602082019050818103600083015261218081611c1a565b9050919050565b600060208201905081810360008301526121a081611c5a565b9050919050565b600060208201905081810360008301526121c081611cc0565b9050919050565b600060208201905081810360008301526121e081611d26565b9050919050565b6000602082019050818103600083015261220081611d8c565b9050919050565b6000602082019050818103600083015261222081611df2565b9050919050565b6000602082019050818103600083015261224081611e32565b9050919050565b6000602082019050818103600083015261226081611e98565b9050919050565b6000602082019050818103600083015261228081611efe565b9050919050565b600060208201905081810360008301526122a081611f64565b9050919050565b600060208201905081810360008301526122c081611fca565b9050919050565b60006020820190506122dc6000830184612030565b92915050565b6000604051905081810181811067ffffffffffffffff8211171561230957612308612660565b5b8060405250919050565b600067ffffffffffffffff82111561232e5761232d612660565b5b601f19601f8301169050602081019050919050565b600067ffffffffffffffff82111561235e5761235d612660565b5b601f19601f8301169050602081019050919050565b600081519050919050565b600081519050919050565b600082825260208201905092915050565b600082825260208201905092915050565b600081905092915050565b60006123c1826124db565b91506123cc836124db565b9250827fffffffffffffffffffffffffffffffffffffffffffffffffffffffffffffffff03821115612401576124006125d3565b5b828201905092915050565b6000612417826124db565b9150612422836124db565b92508261243257612431612602565b5b828204905092915050565b6000612448826124db565b9150612453836124db565b925082821015612466576124656125d3565b5b828203905092915050565b600061247c826124bb565b9050919050565b60008115159050919050565b60007fffffffff0000000000000000000000000000000000000000000000000000000082169050919050565b600073ffffffffffffffffffffffffffffffffffffffff82169050919050565b6000819050919050565b82818337600083830152505050565b60005b838110156125125780820151818401526020810190506124f7565b83811115612521576000848401525b50505050565b6000600282049050600182168061253f57607f821691505b6020821081141561255357612552612631565b5b50919050565b6000612564826124db565b91507fffffffffffffffffffffffffffffffffffffffffffffffffffffffffffffffff821415612597576125966125d3565b5b600182019050919050565b60006125ad826124db565b91506125b8836124db565b9250826125c8576125c7612602565b5b828206905092915050565b7f4e487b7100000000000000000000000000000000000000000000000000000000600052601160045260246000fd5b7f4e487b7100000000000000000000000000000000000000000000000000000000600052601260045260246000fd5b7f4e487b7100000000000000000000000000000000000000000000000000000000600052602260045260246000fd5b7f4e487b7100000000000000000000000000000000000000000000000000000000600052604160045260246000fd5b6000601f19601f8301169050919050565b6126a981612471565b81146126b457600080fd5b50565b6126c081612483565b81146126cb57600080fd5b50565b6126d78161248f565b81146126e257600080fd5b50565b6126ee816124db565b81146126f957600080fd5b5056fea26469706673582212205e8d2785c260e79e25fee3327914dca8b586e943edb63a2619a64e91592e18a964736f6c63430008000033",
  "immutableReferences": {},
  "source": "// SPDX-License-Identifier: MIT\npragma solidity 0.8.0;\n\n// General ERC721 functionalities\nimport \"@openzeppelin/contracts/token/ERC721/ERC721.sol\";\n// Helps increment the counters\nimport \"@openzeppelin/contracts/utils/Counters.sol\";\nimport \"@openzeppelin/contracts/token/ERC721/extensions/ERC721URIStorage.sol\";\n\n// import 'https://github.com/OpenZeppelin/openzeppelin-contracts/blob/release-v4.0/contracts/token/ERC721/extensions/ERC721URIStorage.sol';\n\ncontract UniqueAsset is ERC721 {\n    // Data Structure for the Counter of tokens + mapping for IPFS Hashing\n    using Counters for Counters.Counter;\n    Counters.Counter private _tokenIds;\n    mapping(string => uint8) hashes;\n\n    constructor() ERC721(\"UniqueAsset\", \"UNA\") {}\n\n    // Init the ERC721 asset\n    //Fn to mint an NFT if IPFS Hash is available\n    // Address is who will receive it, hash for IPFS, metadata is has for JSON data on NFT\n    function awardItem(\n        address recipient,\n        string memory hash,\n        string memory metadata\n    ) public returns (uint256) {\n        // require(hash[hash] != 1);\n        _tokenIds.increment();\n        uint256 newItemId = _tokenIds.current();\n        _mint(recipient, newItemId);\n        // _setTokenURI(newItemId, metadata);\n        return newItemId;\n    }\n}\n",
  "sourcePath": "/Users/tterado/Desktop/Code/2021/eth_tsuru/mySpecialAsset/contracts/UniqueAsset.sol",
  "compiler": {
    "name": "solc",
    "version": "0.8.0+commit.c7dfd78e.Emscripten.clang"
  },
  "schemaVersion": "3.3.4",
  "updatedAt": "2021-04-07T15:28:11.403Z",
  "devdoc": {
    "kind": "dev",
    "methods": {
      "approve(address,uint256)": {
        "details": "See {IERC721-approve}."
      },
      "balanceOf(address)": {
        "details": "See {IERC721-balanceOf}."
      },
      "getApproved(uint256)": {
        "details": "See {IERC721-getApproved}."
      },
      "isApprovedForAll(address,address)": {
        "details": "See {IERC721-isApprovedForAll}."
      },
      "name()": {
        "details": "See {IERC721Metadata-name}."
      },
      "ownerOf(uint256)": {
        "details": "See {IERC721-ownerOf}."
      },
      "safeTransferFrom(address,address,uint256)": {
        "details": "See {IERC721-safeTransferFrom}."
      },
      "safeTransferFrom(address,address,uint256,bytes)": {
        "details": "See {IERC721-safeTransferFrom}."
      },
      "setApprovalForAll(address,bool)": {
        "details": "See {IERC721-setApprovalForAll}."
      },
      "supportsInterface(bytes4)": {
        "details": "See {IERC165-supportsInterface}."
      },
      "symbol()": {
        "details": "See {IERC721Metadata-symbol}."
      },
      "tokenURI(uint256)": {
        "details": "See {IERC721Metadata-tokenURI}."
      },
      "transferFrom(address,address,uint256)": {
        "details": "See {IERC721-transferFrom}."
      }
    },
    "version": 1
  },
  "userdoc": {
    "kind": "user",
    "methods": {},
    "version": 1
  }
}